000000001ML010RV048050             0120150920201509                                                                     00000002883578400+                                            00019D00000000002087300+00000000000000000+00000000000+00000000000+00000000000000000+0000000000000000000000000+INTERFAZ ICG - COSTOS                                                           30085                                                                                                       000000    000000000000                                0000000000000000                            0           000000000000000000000000+0000000000000+00000000                        000000000000000000                                                                                    0000000000000000                    010   E00000000 01       000000   000000                                                                 00000000                    0000000000000000                                                                                                                                                       000000000         00000000                                                                                                                        0000000                                                                                   0                              0                                                                      000                                                     000                                          00000000000000            00 00     00000 000                                                                                     00000000                0000                                        0000000000000000    0000                                          0   0000000000000000                                           0            00000000                    000000000000000000000000   000                                                      
000000002ML010RV048050             0120150920201509                                                                     00000002883578400+                                            00019C00000000002087300+00000000000000000+00000000000+00000000000+00000000000000000+0000000000000000000000000+INTERFAZ ICG - COSTOS                                                           30085                                                                                                       000000    000000000000                                0000000000000000                            0           000000000000000000000000+0000000000000+00000000                        000000000000000000                                                                                    0000000000000000                    010   E00000000 01       000000   000000                                                                 00000000                    0000000000000000                                                                                                                                                       000000000         00000000                                                                                                                        0000000                                                                                   0                              0                                                                      000                                                     000                                          00000000000000            00 00     00000 000                                                                                     00000000                0000                                        0000000000000000    0000                                          0   0000000000000000                                           0            00000000                    000000000000000000000000   000                                                      
000000003ML010RV048050             0120150920201509                                                                     00000002883578400+                                            00019D00000000001257300+00000000000000000+00000000000+00000000000+00000000000000000+0000000000000000000000000+INTERFAZ ICG - DESCUENTOS                                                       30080                                                                                                       000000    000000000000                                0000000000000000                            0           000000000000000000000000+0000000000000+00000000                        000000000000000000                                                                                    0000000000000000                    010   E00000000 01       000000   000000                                                                 00000000                    0000000000000000                                                                                                                                                       000000000         00000000                                                                                                                        0000000                                                                                   0                              0                                                                      000                                                     000                                          00000000000000            00 00     00000 000                                                                                     00000000                0000                                        0000000000000000    0000                                          0   0000000000000000                                           0            00000000                    000000000000000000000000   000                                                      
000000004ML010RV048050             0120150920201509                                                                     00000002883578400+                                            00019D00000000000351900+00000000000000000+00000000000+00000000000+00000000000000000+0000000000000000000000000+INTERFAZ ICG - DESCUENTOS                                                       30085                                                                                                       000000    000000000000                                0000000000000000                            0           000000000000000000000000+0000000000000+00000000                        000000000000000000                                                                                    0000000000000000                    010   E00000000 01       000000   000000                                                                 00000000                    0000000000000000                                                                                                                                                       000000000         00000000                                                                                                                        0000000                                                                                   0                              0                                                                      000                                                     000                                          00000000000000            00 00     00000 000                                                                                     00000000                0000                                        0000000000000000    0000                                          0   0000000000000000                                           0            00000000                    000000000000000000000000   000                                                      
000000005ML010RV048050             0120150920201509                                                                     00000002883578400+                       24950503             00019C00000000000410500+00000000000000000+00000000000+00000000000+00000000005130700+0000000000000000000000000+INTERFAZ ICG - IMPUESTOS                                                                                                                                                                    000000    000000000000                                0000000000000000                            0           000000000000000000000000+0000000000000+00000000                        000000000000000000                                                                                    0000000000000000                    010   E00000000 01       000000   000000                                                                 00000000                    0000000000000000                                                                                                                                                       000000000         00000000                                                                                                                        0000000                                                                                   0                              0                                                                      000                                                     000                                          00000000000000            00 00     00000 000                                                                                     00000000                0000                                        0000000000000000    0000                                          0   0000000000000000                                           0            00000000                    000000000000000000000000   000                                                      
000000006ML010RV048050             0120150920201509                                                                     00000002883578400+                       41401501             00019C00000000006739800+00000000000000000+00000000000+00000000000+00000000000000000+0000000000000000000000000+INTERFAZ ICG - VALOR ANTES DE IMPUESTOS                                         30085                                                                                                       000000    000000000000                                0000000000000000                            0           000000000000000000000000+0000000000000+00000000                        000000000000000000                                                                                    0000000000000000                    010   E00000000 01       000000   000000                                                                 00000000                    0000000000000000                                                                                                                                                       000000000         00000000                                                                                                                        0000000                                                                                   0                              0                                                                      000                                                     000                                          00000000000000            00 00     00000 000                                                                                     00000000                0000                                        0000000000000000    0000                                          0   0000000000000000                                           0            00000000                    000000000000000000000000   000                                                      
000000007ML019RV048050             0120150920201509                                                                     00000002883578400+                                            00019D00000000261361000+00000000000000000+00000000000+00000000000+00000000000000000+0000000000000000000000000+INTERFAZ ICG - COSTOS                                                                                                                                                                       000000    000000000000                                0000000000000000                            0           000000000000000000000000+0000000000000+00000000                        000000000000000000                                                                                    0000000000000000                    019   E00000000 01       000000   000000                                                                 00000000                    0000000000000000                                                                                                                                                       000000000         00000000                                                                                                                        0000000                                                                                   0                              0                                                                      000                                                     000                                          00000000000000            00 00     00000 000                                                                                     00000000                0000                                        0000000000000000    0000                                          0   0000000000000000                                           0            00000000                    000000000000000000000000   000                                                      
000000008ML019RV048050             0120150920201509                                                                     00000002883578400+                                            00019D00000000105243200+00000000000000000+00000000000+00000000000+00000000000000000+0000000000000000000000000+INTERFAZ ICG - COSTOS                                                           30080                                                                                                       000000    000000000000                                0000000000000000                            0           000000000000000000000000+0000000000000+00000000                        000000000000000000                                                                                    0000000000000000                    019   E00000000 01       000000   000000                                                                 00000000                    0000000000000000                                                                                                                                                       000000000         00000000                                                                                                                        0000000                                                                                   0                              0                                                                      000                                                     000                                          00000000000000            00 00     00000 000                                                                                     00000000                0000                                        0000000000000000    0000                                          0   0000000000000000                                           0            00000000                    000000000000000000000000   000                                                      
000000009ML019RV048050             0120150920201509                                                                     00000002883578400+                                            00019D00000000288656000+00000000000000000+00000000000+00000000000+00000000000000000+0000000000000000000000000+INTERFAZ ICG - COSTOS                                                           30085                                                                                                       000000    000000000000                                0000000000000000                            0           000000000000000000000000+0000000000000+00000000                        000000000000000000                                                                                    0000000000000000                    019   E00000000 01       000000   000000                                                                 00000000                    0000000000000000                                                                                                                                                       000000000         00000000                                                                                                                        0000000                                                                                   0                              0                                                                      000                                                     000                                          00000000000000            00 00     00000 000                                                                                     00000000                0000                                        0000000000000000    0000                                          0   0000000000000000                                           0            00000000                    000000000000000000000000   000                                                      
000000010ML019RV048050             0120150920201509                                                                     00000002883578400+                                            00019C00000000261361000+00000000000000000+00000000000+00000000000+00000000000000000+0000000000000000000000000+INTERFAZ ICG - COSTOS                                                                                                                                                                       000000    000000000000                                0000000000000000                            0           000000000000000000000000+0000000000000+00000000                        000000000000000000                                                                                    0000000000000000                    019   E00000000 01       000000   000000                                                                 00000000                    0000000000000000                                                                                                                                                       000000000         00000000                                                                                                                        0000000                                                                                   0                              0                                                                      000                                                     000                                          00000000000000            00 00     00000 000                                                                                     00000000                0000                                        0000000000000000    0000                                          0   0000000000000000                                           0            00000000                    000000000000000000000000   000                                                      
000000011ML019RV048050             0120150920201509                                                                     00000002883578400+                                            00019C00000000105243200+00000000000000000+00000000000+00000000000+00000000000000000+0000000000000000000000000+INTERFAZ ICG - COSTOS                                                           30080                                                                                                       000000    000000000000                                0000000000000000                            0           000000000000000000000000+0000000000000+00000000                        000000000000000000                                                                                    0000000000000000                    019   E00000000 01       000000   000000                                                                 00000000                    0000000000000000                                                                                                                                                       000000000         00000000                                                                                                                        0000000                                                                                   0                              0                                                                      000                                                     000                                          00000000000000            00 00     00000 000                                                                                     00000000                0000                                        0000000000000000    0000                                          0   0000000000000000                                           0            00000000                    000000000000000000000000   000                                                      
000000012ML019RV048050             0120150920201509                                                                     00000002883578400+                                            00019C00000000288656000+00000000000000000+00000000000+00000000000+00000000000000000+0000000000000000000000000+INTERFAZ ICG - COSTOS                                                           30085                                                                                                       000000    000000000000                                0000000000000000                            0           000000000000000000000000+0000000000000+00000000                        000000000000000000                                                                                    0000000000000000                    019   E00000000 01       000000   000000                                                                 00000000                    0000000000000000                                                                                                                                                       000000000         00000000                                                                                                                        0000000                                                                                   0                              0                                                                      000                                                     000                                          00000000000000            00 00     00000 000                                                                                     00000000                0000                                        0000000000000000    0000                                          0   0000000000000000                                           0            00000000                    000000000000000000000000   000                                                      
000000013ML019RV048050             0120150920201509                                                                     00000002883578400+                                            00019D00000000000124700+00000000000000000+00000000000+00000000000+00000000000000000+0000000000000000000000000+INTERFAZ ICG - DESCUENTO PUNTOS                                                                                                                                                             000000    000000000000                                0000000000000000                            0           000000000000000000000000+0000000000000+00000000                        000000000000000000                                                                                    0000000000000000                    019   E00000000 01       000000   000000                                                                 00000000                    0000000000000000                                                                                                                                                       000000000         00000000                                                                                                                        0000000                                                                                   0                              0                                                                      000                                                     000                                          00000000000000            00 00     00000 000                                                                                     00000000                0000                                        0000000000000000    0000                                          0   0000000000000000                                           0            00000000                    000000000000000000000000   000                                                      
000000014ML019RV048050             0120150920201509                                                                     00000002883578400+                                            00019C00000000007350000+00000000000000000+00000000000+00000000000+00000000000000000+0000000000000000000000000+INTERFAZ ICG - EXENTOS                                                          30080                                                                                                       000000    000000000000                                0000000000000000                            0           000000000000000000000000+0000000000000+00000000                        000000000000000000                                                                                    0000000000000000                    019   E00000000 01       000000   000000                                                                 00000000                    0000000000000000                                                                                                                                                       000000000         00000000                                                                                                                        0000000                                                                                   0                              0                                                                      000                                                     000                                          00000000000000            00 00     00000 000                                                                                     00000000                0000                                        0000000000000000    0000                                          0   0000000000000000                                           0            00000000                    000000000000000000000000   000                                                      
000000015ML019RV048050             0120150920201509                                                                     00000002883578400+                                            00019D00000000144955300+00000000000000000+00000000000+00000000000+00000000000000000+0000000000000000000000000+INTERFAZ ICG - PROPINAS                                                                                                                                                                     000000    000000000000                                0000000000000000                            0           000000000000000000000000+0000000000000+00000000                        000000000000000000                                                                                    0000000000000000                    019   E00000000 01       000000   000000                                                                 00000000                    0000000000000000                                                                                                                                                       000000000         00000000                                                                                                                        0000000                                                                                   0                              0                                                                      000                                                     000                                          00000000000000            00 00     00000 000                                                                                     00000000                0000                                        0000000000000000    0000                                          0   0000000000000000                                           0            00000000                    000000000000000000000000   000                                                      
000000016ML019RV048050             0120150920201509                                                                     00000002883578400+                                            00019C00000000144955300+00000000000000000+00000000000+00000000000+00000000000000000+0000000000000000000000000+INTERFAZ ICG - PROPINAS                                                                                                                                                                     000000    000000000000                                0000000000000000                            0           000000000000000000000000+0000000000000+00000000                        000000000000000000                                                                                    0000000000000000                    019   E00000000 01       000000   000000                                                                 00000000                    0000000000000000                                                                                                                                                       000000000         00000000                                                                                                                        0000000                                                                                   0                              0                                                                      000                                                     000                                          00000000000000            00 00     00000 000                                                                                     00000000                0000                                        0000000000000000    0000                                          0   0000000000000000                                           0            00000000                    000000000000000000000000   000                                                      
000000017ML019RV048050             0120150920201509                                                                     00000002883578400+                                            00019D00000000000124700+00000000000000000+00000000000+00000000000+00000000000000000+0000000000000000000000000+INTERFAZ ICG - REDENCION PUNTOS                                                                                                                                                             000000    000000000000                                0000000000000000                            0           000000000000000000000000+0000000000000+00000000                        000000000000000000                                                                                    0000000000000000                    019   E00000000 01       000000   000000                                                                 00000000                    0000000000000000                                                                                                                                                       000000000         00000000                                                                                                                        0000000                                                                                   0                              0                                                                      000                                                     000                                          00000000000000            00 00     00000 000                                                                                     00000000                0000                                        0000000000000000    0000                                          0   0000000000000000                                           0            00000000                    000000000000000000000000   000                                                      
000000018ML019RV048050             0120150920201509                                                                     00000002883578400+                                            00019C00000000000124700+00000000000000000+00000000000+00000000000+00000000000000000+0000000000000000000000000+INTERFAZ ICG - REDENCION PUNTOS                                                                                                                                                             000000    000000000000                                0000000000000000                            0           000000000000000000000000+0000000000000+00000000                        000000000000000000                                                                                    0000000000000000                    019   E00000000 01       000000   000000                                                                 00000000                    0000000000000000                                                                                                                                                       000000000         00000000                                                                                                                        0000000                                                                                   0                              0                                                                      000                                                     000                                          00000000000000            00 00     00000 000                                                                                     00000000                0000                                        0000000000000000    0000                                          0   0000000000000000                                           0            00000000                    000000000000000000000000   000                                                      
000000019ML019RV048050             0120150920201509                                                                     00000002883578400+                       11050510             00019D00000002059547000+00000000000000000+00000000000+00000000000+00000000000000000+0000000000000000000000000+INTERFAZ ICG - PAGOS                                                                                                                                                                        000000    000000000000                                0000000000000000                            0           000000000000000000000000+0000000000000+00000000                        000000000000000000                                                                                    0000000000000000                    019   E00000000 01       000000   000000                                                                 00000000                    0000000000000000                                                                                                                                                       000000000         00000000                                                                                                                        0000000                                                                                   0                              0                                                                      000                                                     000                                          00000000000000            00 00     00000 000                                                                                     00000000                0000                                        0000000000000000    0000                                          0   0000000000000000                                           0            00000000                    000000000000000000000000   000                                                      
000000020ML019RV048050             0120150920201509                                                                     00000002883578400+                       24080501             00019C00000000000020000-00000000000000000+00000000000+00000000000+0000000000-124700+0000000000000000000000000+INTERFAZ ICG - IMPUESTOS                                                                                                                                                                    000000    000000000000                                0000000000000000                            0           000000000000000000000000+0000000000000+00000000                        000000000000000000                                                                                    0000000000000000                    019   E00000000 01       000000   000000                                                                 00000000                    0000000000000000                                                                                                                                                       000000000         00000000                                                                                                                        0000000                                                                                   0                              0                                                                      000                                                     000                                          00000000000000            00 00     00000 000                                                                                     00000000                0000                                        0000000000000000    0000                                          0   0000000000000000                                           0            00000000                    000000000000000000000000   000                                                      
000000021ML019RV048050             0120150920201509                                                                     00000002883578400+                       24950503             00019C00000000158129100+00000000000000000+00000000000+00000000000+00000001976614300+0000000000000000000000000+INTERFAZ ICG - IMPUESTOS                                                                                                                                                                    000000    000000000000                                0000000000000000                            0           000000000000000000000000+0000000000000+00000000                        000000000000000000                                                                                    0000000000000000                    019   E00000000 01       000000   000000                                                                 00000000                    0000000000000000                                                                                                                                                       000000000         00000000                                                                                                                        0000000                                                                                   0                              0                                                                      000                                                     000                                          00000000000000            00 00     00000 000                                                                                     00000000                0000                                        0000000000000000    0000                                          0   0000000000000000                                           0            00000000                    000000000000000000000000   000                                                      
000000022ML019RV048050             0120150920201509                                                                     00000002883578400+                       28109502             00019D00000000019870000+00000000000000000+00000000000+00000000000+00000000000000000+0000000000000000000000000+INTERFAZ ICG - PAGOS                                                            30080                                                                                                       000000    000000000000                                0000000000000000                            0           000000000000000000000000+0000000000000+00000000                        000000000000000000                                                                                    0000000000000000                    019   E00000000 01       000000   000000                                                                 00000000                    0000000000000000                                                                                                                                                       000000000         00000000                                                                                                                        0000000                                                                                   0                              0                                                                      000                                                     000                                          00000000000000            00 00     00000 000                                                                                     00000000                0000                                        0000000000000000    0000                                          0   0000000000000000                                           0            00000000                    000000000000000000000000   000                                                      
000000023ML019RV048050             0120150920201509                                                                     00000002883578400+                       41401501             00019C00000001730879600+00000000000000000+00000000000+00000000000+00000000000000000+0000000000000000000000000+INTERFAZ ICG - VALOR ANTES DE IMPUESTOS                                         30080                                                                                                       000000    000000000000                                0000000000000000                            0           000000000000000000000000+0000000000000+00000000                        000000000000000000                                                                                    0000000000000000                    019   E00000000 01       000000   000000                                                                 00000000                    0000000000000000                                                                                                                                                       000000000         00000000                                                                                                                        0000000                                                                                   0                              0                                                                      000                                                     000                                          00000000000000            00 00     00000 000                                                                                     00000000                0000                                        0000000000000000    0000                                          0   0000000000000000                                           0            00000000                    000000000000000000000000   000                                                      
000000024ML019RV048050             0120150920201509                                                                     00000002883578400+                       41401501             00019C00000000245740700+00000000000000000+00000000000+00000000000+00000000000000000+0000000000000000000000000+INTERFAZ ICG - VALOR ANTES DE IMPUESTOS                                         30085                                                                                                       000000    000000000000                                0000000000000000                            0           000000000000000000000000+0000000000000+00000000                        000000000000000000                                                                                    0000000000000000                    019   E00000000 01       000000   000000                                                                 00000000                    0000000000000000                                                                                                                                                       000000000         00000000                                                                                                                        0000000                                                                                   0                              0                                                                      000                                                     000                                          00000000000000            00 00     00000 000                                                                                     00000000                0000                                        0000000000000000    0000                                          0   0000000000000000                                           0            00000000                    000000000000000000000000   000                                                      
000000025ML010RV048050             0120150920201509                                                                     00000000001455600+                       130505021012378464   00019D00000000001455600+00000000000000000+00000000000+00000000000+00000000000000000+0000000000000000000000000+INTERFAZ ICG - PAGOS                                                                                                                                                                        000000    000000000000                              FC0025800020150920                            0           000000000000000000000000+0000000000000+00000000                        000000000000000000                                                                                    0000000000000000                    010   E00000000 01       000000   000000                                                                 00000000                    0000000000000000                                                                                                                                                       000000000         00000000                                                                                                                        0000000                                                                                   0                              0                                                                      000                                                     000                                          00000000000000            00 00     00000 000                                                                                     00000000                0000                                        0000000000000000    0000                                          0   0000000000000000                                           0            00000000                    000000000000000000000000   000                                                      
000000026ML010RV048050             0120150920201509                                                                     00000000001110500+                       1305050251778157     00019D00000000001110500+00000000000000000+00000000000+00000000000+00000000000000000+0000000000000000000000000+INTERFAZ ICG - PAGOS                                                                                                                                                                        000000    000000000000                              FC0025800020150920                            0           000000000000000000000000+0000000000000+00000000                        000000000000000000                                                                                    0000000000000000                    010   E00000000 01       000000   000000                                                                 00000000                    0000000000000000                                                                                                                                                       000000000         00000000                                                                                                                        0000000                                                                                   0                              0                                                                      000                                                     000                                          00000000000000            00 00     00000 000                                                                                     00000000                0000                                        0000000000000000    0000                                          0   0000000000000000                                           0            00000000                    000000000000000000000000   000                                                      
000000027ML010RV048050             0120150920201509                                                                     00000000002975000+                       1305050253097132     00019D00000000002975000+00000000000000000+00000000000+00000000000+00000000000000000+0000000000000000000000000+INTERFAZ ICG - PAGOS                                                                                                                                                                        000000    000000000000                              FC0025800020150920                            0           000000000000000000000000+0000000000000+00000000                        000000000000000000                                                                                    0000000000000000                    010   E00000000 01       000000   000000                                                                 00000000                    0000000000000000                                                                                                                                                       000000000         00000000                                                                                                                        0000000                                                                                   0                              0                                                                      000                                                     000                                          00000000000000            00 00     00000 000                                                                                     00000000                0000                                        0000000000000000    0000                                          0   0000000000000000                                           0            00000000                    000000000000000000000000   000                                                      
000000028ML019RV048050             0120150920201509                                                                     00000000009000000+                       13050505800112214    00019D00000000009000000+00000000000000000+00000000000+00000000000+00000000000000000+0000000000000000000000000+INTERFAZ ICG - PAGOS                                                                                                                                                                        000000    000000000000                              FC0025800020150920                            0           000000000000000000000000+0000000000000+00000000                        000000000000000000                                                                                    0000000000000000                    019   E00000000 01       000000   000000                                                                 00000000                    0000000000000000                                                                                                                                                       000000000         00000000                                                                                                                        0000000                                                                                   0                              0                                                                      000                                                     000                                          00000000000000            00 00     00000 000                                                                                     00000000                0000                                        0000000000000000    0000                                          0   0000000000000000                                           0            00000000                    000000000000000000000000   000                                                      
000000029ML019RV048050             0120150920201509                                                                     00000000007460000+                       13050505860007336    00019D00000000007460000+00000000000000000+00000000000+00000000000+00000000000000000+0000000000000000000000000+INTERFAZ ICG - PAGOS                                                                                                                                                                        000000    000000000000                              FC0025800020150920                            0           000000000000000000000000+0000000000000+00000000                        000000000000000000                                                                                    0000000000000000                    019   E00000000 01       000000   000000                                                                 00000000                    0000000000000000                                                                                                                                                       000000000         00000000                                                                                                                        0000000                                                                                   0                              0                                                                      000                                                     000                                          00000000000000            00 00     00000 000                                                                                     00000000                0000                                        0000000000000000    0000                                          0   0000000000000000                                           0            00000000                    000000000000000000000000   000                                                      
000000030ML019RV048050             0120150920201509                                                                     00000000046078400+                       13050505890903938    00019D00000000046078400+00000000000000000+00000000000+00000000000+00000000000000000+0000000000000000000000000+INTERFAZ ICG - PAGOS                                                                                                                                                                        000000    000000000000                              FC0025800020150920                            0           000000000000000000000000+0000000000000+00000000                        000000000000000000                                                                                    0000000000000000                    019   E00000000 01       000000   000000                                                                 00000000                    0000000000000000                                                                                                                                                       000000000         00000000                                                                                                                        0000000                                                                                   0                              0                                                                      000                                                     000                                          00000000000000            00 00     00000 000                                                                                     00000000                0000                                        0000000000000000    0000                                          0   0000000000000000                                           0            00000000                    000000000000000000000000   000                                                      
000000031ML022RV048051             0120150920201509                                                                     00000004841053700+                                            00022D00000000518417200+00000000000000000+00000000000+00000000000+00000000000000000+0000000000000000000000000+INTERFAZ ICG - COSTOS                                                                                                                                                                       000000    000000000000                                0000000000000000                            0           000000000000000000000000+0000000000000+00000000                        000000000000000000                                                                                    0000000000000000                    022   E00000000 01       000000   000000                                                                 00000000                    0000000000000000                                                                                                                                                       000000000         00000000                                                                                                                        0000000                                                                                   0                              0                                                                      000                                                     000                                          00000000000000            00 00     00000 000                                                                                     00000000                0000                                        0000000000000000    0000                                          0   0000000000000000                                           0            00000000                    000000000000000000000000   000                                                      
000000032ML022RV048051             0120150920201509                                                                     00000004841053700+                                            00022D00000000452210700+00000000000000000+00000000000+00000000000+00000000000000000+0000000000000000000000000+INTERFAZ ICG - COSTOS                                                           30080                                                                                                       000000    000000000000                                0000000000000000                            0           000000000000000000000000+0000000000000+00000000                        000000000000000000                                                                                    0000000000000000                    022   E00000000 01       000000   000000                                                                 00000000                    0000000000000000                                                                                                                                                       000000000         00000000                                                                                                                        0000000                                                                                   0                              0                                                                      000                                                     000                                          00000000000000            00 00     00000 000                                                                                     00000000                0000                                        0000000000000000    0000                                          0   0000000000000000                                           0            00000000                    000000000000000000000000   000                                                      
000000033ML022RV048051             0120150920201509                                                                     00000004841053700+                                            00022D00000000092182600+00000000000000000+00000000000+00000000000+00000000000000000+0000000000000000000000000+INTERFAZ ICG - COSTOS                                                           30085                                                                                                       000000    000000000000                                0000000000000000                            0           000000000000000000000000+0000000000000+00000000                        000000000000000000                                                                                    0000000000000000                    022   E00000000 01       000000   000000                                                                 00000000                    0000000000000000                                                                                                                                                       000000000         00000000                                                                                                                        0000000                                                                                   0                              0                                                                      000                                                     000                                          00000000000000            00 00     00000 000                                                                                     00000000                0000                                        0000000000000000    0000                                          0   0000000000000000                                           0            00000000                    000000000000000000000000   000                                                      
000000034ML022RV048051             0120150920201509                                                                     00000004841053700+                                            00022C00000000518417200+00000000000000000+00000000000+00000000000+00000000000000000+0000000000000000000000000+INTERFAZ ICG - COSTOS                                                                                                                                                                       000000    000000000000                                0000000000000000                            0           000000000000000000000000+0000000000000+00000000                        000000000000000000                                                                                    0000000000000000                    022   E00000000 01       000000   000000                                                                 00000000                    0000000000000000                                                                                                                                                       000000000         00000000                                                                                                                        0000000                                                                                   0                              0                                                                      000                                                     000                                          00000000000000            00 00     00000 000                                                                                     00000000                0000                                        0000000000000000    0000                                          0   0000000000000000                                           0            00000000                    000000000000000000000000   000                                                      
000000035ML022RV048051             0120150920201509                                                                     00000004841053700+                                            00022C00000000452210700+00000000000000000+00000000000+00000000000+00000000000000000+0000000000000000000000000+INTERFAZ ICG - COSTOS                                                           30080                                                                                                       000000    000000000000                                0000000000000000                            0           000000000000000000000000+0000000000000+00000000                        000000000000000000                                                                                    0000000000000000                    022   E00000000 01       000000   000000                                                                 00000000                    0000000000000000                                                                                                                                                       000000000         00000000                                                                                                                        0000000                                                                                   0                              0                                                                      000                                                     000                                          00000000000000            00 00     00000 000                                                                                     00000000                0000                                        0000000000000000    0000                                          0   0000000000000000                                           0            00000000                    000000000000000000000000   000                                                      
000000036ML022RV048051             0120150920201509                                                                     00000004841053700+                                            00022C00000000092182600+00000000000000000+00000000000+00000000000+00000000000000000+0000000000000000000000000+INTERFAZ ICG - COSTOS                                                           30085                                                                                                       000000    000000000000                                0000000000000000                            0           000000000000000000000000+0000000000000+00000000                        000000000000000000                                                                                    0000000000000000                    022   E00000000 01       000000   000000                                                                 00000000                    0000000000000000                                                                                                                                                       000000000         00000000                                                                                                                        0000000                                                                                   0                              0                                                                      000                                                     000                                          00000000000000            00 00     00000 000                                                                                     00000000                0000                                        0000000000000000    0000                                          0   0000000000000000                                           0            00000000                    000000000000000000000000   000                                                      
000000037ML022RV048051             0120150920201509                                                                     00000004841053700+                                            00022D00000000002024000+00000000000000000+00000000000+00000000000+00000000000000000+0000000000000000000000000+INTERFAZ ICG - DESCUENTO PUNTOS                                                                                                                                                             000000    000000000000                                0000000000000000                            0           000000000000000000000000+0000000000000+00000000                        000000000000000000                                                                                    0000000000000000                    022   E00000000 01       000000   000000                                                                 00000000                    0000000000000000                                                                                                                                                       000000000         00000000                                                                                                                        0000000                                                                                   0                              0                                                                      000                                                     000                                          00000000000000            00 00     00000 000                                                                                     00000000                0000                                        0000000000000000    0000                                          0   0000000000000000                                           0            00000000                    000000000000000000000000   000                                                      
000000038ML022RV048051             0120150920201509                                                                     00000004841053700+                                            00022D00000000000168100+00000000000000000+00000000000+00000000000+00000000000000000+0000000000000000000000000+INTERFAZ ICG - DESCUENTOS                                                       30080                                                                                                       000000    000000000000                                0000000000000000                            0           000000000000000000000000+0000000000000+00000000                        000000000000000000                                                                                    0000000000000000                    022   E00000000 01       000000   000000                                                                 00000000                    0000000000000000                                                                                                                                                       000000000         00000000                                                                                                                        0000000                                                                                   0                              0                                                                      000                                                     000                                          00000000000000            00 00     00000 000                                                                                     00000000                0000                                        0000000000000000    0000                                          0   0000000000000000                                           0            00000000                    000000000000000000000000   000                                                      
000000039ML022RV048051             0120150920201509                                                                     00000004841053700+                                            00022C00000000020660000+00000000000000000+00000000000+00000000000+00000000000000000+0000000000000000000000000+INTERFAZ ICG - EXENTOS                                                          30080                                                                                                       000000    000000000000                                0000000000000000                            0           000000000000000000000000+0000000000000+00000000                        000000000000000000                                                                                    0000000000000000                    022   E00000000 01       000000   000000                                                                 00000000                    0000000000000000                                                                                                                                                       000000000         00000000                                                                                                                        0000000                                                                                   0                              0                                                                      000                                                     000                                          00000000000000            00 00     00000 000                                                                                     00000000                0000                                        0000000000000000    0000                                          0   0000000000000000                                           0            00000000                    000000000000000000000000   000                                                      
000000040ML022RV048051             0120150920201509                                                                     00000004841053700+                                            00022D00000000236252600+00000000000000000+00000000000+00000000000+00000000000000000+0000000000000000000000000+INTERFAZ ICG - PROPINAS                                                                                                                                                                     000000    000000000000                                0000000000000000                            0           000000000000000000000000+0000000000000+00000000                        000000000000000000                                                                                    0000000000000000                    022   E00000000 01       000000   000000                                                                 00000000                    0000000000000000                                                                                                                                                       000000000         00000000                                                                                                                        0000000                                                                                   0                              0                                                                      000                                                     000                                          00000000000000            00 00     00000 000                                                                                     00000000                0000                                        0000000000000000    0000                                          0   0000000000000000                                           0            00000000                    000000000000000000000000   000                                                      
000000041ML022RV048051             0120150920201509                                                                     00000004841053700+                                            00022C00000000236252600+00000000000000000+00000000000+00000000000+00000000000000000+0000000000000000000000000+INTERFAZ ICG - PROPINAS                                                                                                                                                                     000000    000000000000                                0000000000000000                            0           000000000000000000000000+0000000000000+00000000                        000000000000000000                                                                                    0000000000000000                    022   E00000000 01       000000   000000                                                                 00000000                    0000000000000000                                                                                                                                                       000000000         00000000                                                                                                                        0000000                                                                                   0                              0                                                                      000                                                     000                                          00000000000000            00 00     00000 000                                                                                     00000000                0000                                        0000000000000000    0000                                          0   0000000000000000                                           0            00000000                    000000000000000000000000   000                                                      
000000042ML022RV048051             0120150920201509                                                                     00000004841053700+                                            00022D00000000002024000+00000000000000000+00000000000+00000000000+00000000000000000+0000000000000000000000000+INTERFAZ ICG - REDENCION PUNTOS                                                                                                                                                             000000    000000000000                                0000000000000000                            0           000000000000000000000000+0000000000000+00000000                        000000000000000000                                                                                    0000000000000000                    022   E00000000 01       000000   000000                                                                 00000000                    0000000000000000                                                                                                                                                       000000000         00000000                                                                                                                        0000000                                                                                   0                              0                                                                      000                                                     000                                          00000000000000            00 00     00000 000                                                                                     00000000                0000                                        0000000000000000    0000                                          0   0000000000000000                                           0            00000000                    000000000000000000000000   000                                                      
000000043ML022RV048051             0120150920201509                                                                     00000004841053700+                                            00022C00000000002024000+00000000000000000+00000000000+00000000000+00000000000000000+0000000000000000000000000+INTERFAZ ICG - REDENCION PUNTOS                                                                                                                                                             000000    000000000000                                0000000000000000                            0           000000000000000000000000+0000000000000+00000000                        000000000000000000                                                                                    0000000000000000                    022   E00000000 01       000000   000000                                                                 00000000                    0000000000000000                                                                                                                                                       000000000         00000000                                                                                                                        0000000                                                                                   0                              0                                                                      000                                                     000                                          00000000000000            00 00     00000 000                                                                                     00000000                0000                                        0000000000000000    0000                                          0   0000000000000000                                           0            00000000                    000000000000000000000000   000                                                      
000000044ML022RV048051             0120150920201509                                                                     00000004841053700+                       11050510             00022D00000003490214500+00000000000000000+00000000000+00000000000+00000000000000000+0000000000000000000000000+INTERFAZ ICG - PAGOS                                                                                                                                                                        000000    000000000000                                0000000000000000                            0           000000000000000000000000+0000000000000+00000000                        000000000000000000                                                                                    0000000000000000                    022   E00000000 01       000000   000000                                                                 00000000                    0000000000000000                                                                                                                                                       000000000         00000000                                                                                                                        0000000                                                                                   0                              0                                                                      000                                                     000                                          00000000000000            00 00     00000 000                                                                                     00000000                0000                                        0000000000000000    0000                                          0   0000000000000000                                           0            00000000                    000000000000000000000000   000                                                      
000000045ML022RV048051             0120150920201509                                                                     00000004841053700+                       24080501             00022C00000000000323800-00000000000000000+00000000000+00000000000+000000000-2024000+0000000000000000000000000+INTERFAZ ICG - IMPUESTOS                                                                                                                                                                    000000    000000000000                                0000000000000000                            0           000000000000000000000000+0000000000000+00000000                        000000000000000000                                                                                    0000000000000000                    022   E00000000 01       000000   000000                                                                 00000000                    0000000000000000                                                                                                                                                       000000000         00000000                                                                                                                        0000000                                                                                   0                              0                                                                      000                                                     000                                          00000000000000            00 00     00000 000                                                                                     00000000                0000                                        0000000000000000    0000                                          0   0000000000000000                                           0            00000000                    000000000000000000000000   000                                                      
000000046ML022RV048051             0120150920201509                                                                     00000004841053700+                       24950503             00022C00000000270626600+00000000000000000+00000000000+00000000000+00000003382833000+0000000000000000000000000+INTERFAZ ICG - IMPUESTOS                                                                                                                                                                    000000    000000000000                                0000000000000000                            0           000000000000000000000000+0000000000000+00000000                        000000000000000000                                                                                    0000000000000000                    022   E00000000 01       000000   000000                                                                 00000000                    0000000000000000                                                                                                                                                       000000000         00000000                                                                                                                        0000000                                                                                   0                              0                                                                      000                                                     000                                          00000000000000            00 00     00000 000                                                                                     00000000                0000                                        0000000000000000    0000                                          0   0000000000000000                                           0            00000000                    000000000000000000000000   000                                                      
000000047ML022RV048051             0120150920201509                                                                     00000004841053700+                       28109502             00022D00000000047560000+00000000000000000+00000000000+00000000000+00000000000000000+0000000000000000000000000+INTERFAZ ICG - PAGOS                                                            30080                                                                                                       000000    000000000000                                0000000000000000                            0           000000000000000000000000+0000000000000+00000000                        000000000000000000                                                                                    0000000000000000                    022   E00000000 01       000000   000000                                                                 00000000                    0000000000000000                                                                                                                                                       000000000         00000000                                                                                                                        0000000                                                                                   0                              0                                                                      000                                                     000                                          00000000000000            00 00     00000 000                                                                                     00000000                0000                                        0000000000000000    0000                                          0   0000000000000000                                           0            00000000                    000000000000000000000000   000                                                      
000000048ML022RV048051             0120150920201509                                                                     00000004841053700+                       41401501             00022C00000002948666700+00000000000000000+00000000000+00000000000+00000000000000000+0000000000000000000000000+INTERFAZ ICG - VALOR ANTES DE IMPUESTOS                                         30080                                                                                                       000000    000000000000                                0000000000000000                            0           000000000000000000000000+0000000000000+00000000                        000000000000000000                                                                                    0000000000000000                    022   E00000000 01       000000   000000                                                                 00000000                    0000000000000000                                                                                                                                                       000000000         00000000                                                                                                                        0000000                                                                                   0                              0                                                                      000                                                     000                                          00000000000000            00 00     00000 000                                                                                     00000000                0000                                        0000000000000000    0000                                          0   0000000000000000                                           0            00000000                    000000000000000000000000   000                                                      
000000049ML022RV048051             0120150920201509                                                                     00000004841053700+                       41401501             00022C00000000434342600+00000000000000000+00000000000+00000000000+00000000000000000+0000000000000000000000000+INTERFAZ ICG - VALOR ANTES DE IMPUESTOS                                         30085                                                                                                       000000    000000000000                                0000000000000000                            0           000000000000000000000000+0000000000000+00000000                        000000000000000000                                                                                    0000000000000000                    022   E00000000 01       000000   000000                                                                 00000000                    0000000000000000                                                                                                                                                       000000000         00000000                                                                                                                        0000000                                                                                   0                              0                                                                      000                                                     000                                          00000000000000            00 00     00000 000                                                                                     00000000                0000                                        0000000000000000    0000                                          0   0000000000000000                                           0            00000000                    000000000000000000000000   000                                                      
000000050ML022RV048051             0120150920201509                                                                     00000000002940000+                       130505015199487      00022D00000000002940000+00000000000000000+00000000000+00000000000+00000000000000000+0000000000000000000000000+INTERFAZ ICG - PAGOS                                                                                                                                                                        000000    000000000000                              FC5153000020150920                            0           000000000000000000000000+0000000000000+00000000                        000000000000000000                                                                                    0000000000000000                    022   E00000000 01       000000   000000                                                                 00000000                    0000000000000000                                                                                                                                                       000000000         00000000                                                                                                                        0000000                                                                                   0                              0                                                                      000                                                     000                                          00000000000000            00 00     00000 000                                                                                     00000000                0000                                        0000000000000000    0000                                          0   0000000000000000                                           0            00000000                    000000000000000000000000   000                                                      
